:03000000021329BF
:0C132900787FE4F6D8FD75812C0213706B
:1017E7004D487A00464D0053544552454F0020203E
:0C17F7004D4F4E4F004B487A004D5700FC
:04194900C103C10015
:10181F0053B1F353B2F353B1FC53B2FC439143535F
:09182F0092BC53917F53927F2279
:10173200E4F508750901F50A750BA2750C40750DE3
:1017420001FB7A007908FF120B32E4FD7F010200EF
:011752001E78
:10170C00750A0175090175083AE4F50BFB7A007945
:10171C00081214C3E4FB7D787F0112161EE5BA543F
:05172C00CF4430F5BAC6
:011731002295
:0418D7007D807F048D
:0F18DB008D08AD077B007A0079087F6A0218EA52
:07005C00AD077F6A0200A658
:1015B2001218D77D027F511218DB7D137F4E12184D
:1015C200DB7D227F2F1218DB7D807F711218DB7D7D
:1015D200CD7F9B1218DBE4FD7F9A1218DB7D887F9A
:1015E200881218DB7D707F891218DB7DD67F9912F5
:1015F20018DB7D067F981218DB7D597F181218DBE5
:101602007D047F711218DB7DD57F221218DB7DD31A
:0C1612007F1F1218DB7D207F2B0218DBED
:100F9A001218D77D037FA01218DB7D027F51121829
:100FAA00DB7D807F711218DB7D7A7F9B1218DBE470
:100FBA00FD7F9A1218DB7DC87F881218DB7D0A7FB5
:100FCA00991218DB7D027F981218DB7D067F8C123E
:100FDA0018DB7D547F8D1218DB7D597F181218DBC0
:100FEA007D047F711218DB7DD57F221218DB7DD339
:050FFA007F1F0218DB5F
:10153F001218D77D037FA01218DB7D027F5112187E
:10154F00DB7D807F711218DB7D207F9B1218DB7D86
:10155F00037F9A1218DB7DA07F991218DB7D0F7F16
:10156F00981218DB7D1F7F8C1218DB7D407F8D1248
:10157F0018DB7D317F191218DB7D407F621218DB7B
:10158F007D9A7F161218DB7D047F711218DB7DC8E0
:10159F007F881218DB7DD57F221218DB7DD37F1F4A
:0315AF000218DB44
:060066008B098A0A890BD8
:10006C007B007A00790C7FE412005C7B007A0079CB
:10007C000D7FE512005CE50CFEE50DFFEE3395E01F
:0B008C00FDFCAB09AA0AA90B020F50F3
:061753008B098A0A890BD4
:101759007B007A00790C7FE612005CE50C24FDAB76
:0817690009AA0AA90B020DC038
:05009E007FE202005C9E
:061771008B098A0A890BB6
:101777007B007A00790C7FEA12005CE50C24FDAB54
:0817870009AA0AA90B020DC01A
:051944007FEC02005CD5
:1018AD00E4F509FB7A0079097FDE12005C5309012A
:0418BD00E50924FF16
:0118C1002204
:101000007508207B007A0079221200662005020113
:10101000E57B007A0079271217537B007A00792844
:1010200012009EE5278528F0A4FFAEF07C007D1419
:10103000120DE48F21750C00750D00750E26AB2185
:10104000E4FDFF1216C61218AD9201E47B14FAF902
:10105000F8AF25AE24AD23AC22120EADAB07AA0625
:10106000750D03750E107D03AF0812114FE50824AE
:1010700018FF7515107B2E7D0312129CE5082420A5
:10108000FFC007E47B02FAF9F8AF25AE24AD23AC2C
:1010900022120EADE47B0AFAF9F8120EAD750D01BD
:1010A000750E10D0077D0312114FE508242CFF7B2D
:1010B000FF7A1779E7750E087D041216777BFF7AA1
:1010C0001779EB750E087D07E4FF1216777BFF306A
:1010D00001067A1779EE80047A1779F5750E087D86
:1010E000077F5080667B007A0079271217717B009A
:1010F0007A007928121944E5278528F0A4FFAEF07C
:101100007C007D32120DE48F21750C00750D007589
:101110000E26AB21E4FDFF1216C6AA24AB25750DE1
:1011200005750E107D03AF0812114FE508242CFF42
:101130007BFF7A1779FC750E087D041216777BFF0A
:0E1140007A187900750E087D07E4FF12167705
:01114E00227E
:1013B50043BA8012181F12173212170C12178F1208
:1013C5001441D2AFC205C204300243C202052AE568
:1013D5002A70020529C394E8E529940340302003C7
:1013E5002DE4F529F52AFB7A007922120066E47FBF
:1013F500B87E06FDFCAB25AA24A923A822C3120F9B
:101405003F70091215B2D205C2048002D203309092
:101415000312100020911020050D1215B212178F1E
:10142500D205C20412100030919E20049B12153F74
:0C14350012178FC205D204121000808C28
:101869007D607C09ED1D70011C144C70F7EF1F7031
:06187900011E144E70EA8E
:01187F002246
:1008DE00EFD3940740037FFF22120D7AFED39403C9
:1008EE0040037FFF22EF7041EE700B900001120D5E
:1008FE0093F452935294120D7AB4010B900001129C
:10090E000D934293F45294120D7AFEB4020A9000A3
:10091E0001120D9342934294EEB4030D9000011216
:10092E000D93FEF45293EE4294EF64017043120D58
:10093E007AFE700B900001120D93F452915292EECA
:10094E00B4010B900001120D934291F45292120DCC
:10095E007AB4020A900001120D9342914292120D46
:10096E007AB4030D900001120D93FEF45291EE42F3
:10097E0092EF64027043120D7AFE700B900001121A
:10098E000D93F452955296EEB4010B900001120D98
:10099E00934295F45296120D7AB4020A9000011207
:1009AE000D9342954296120D7AB4030D90000112EA
:1009BE000D93FEF45295EE4296EF64037043120DC2
:1009CE007AFE700B900001120D93F452B152B2EEFA
:1009DE00B4010B900001120D9342B1F452B2120DFC
:1009EE007AB4020A900001120D9342B142B2120D76
:1009FE007AB4030D900001120D93FEF452B1EE4243
:100A0E00B2EF64047043120D7AFE700B9000011267
:100A1E000D93F452B352B4EEB4010B900001120DCB
:100A2E009342B3F452B4120D7AB4020A900001123A
:100A3E000D9342B342B4120D7AB4030D900001121D
:100A4E000D93FEF452B3EE42B4EF64057043120DF3
:100A5E007AFE700B900001120D93F452C952CAEE39
:100A6E00B4010B900001120D9342C9F452CA120D3B
:100A7E007AB4020A900001120D9342C942CA120DB5
:100A8E007AB4030D900001120D93FEF452C9EE429A
:100A9E00CAEF64067043120D7AFE700B90000112BD
:100AAE000D93F452CB52CCEEB4010B900001120D0B
:100ABE009342CBF452CC120D7AB4020A900001127A
:100ACE000D9342CB42CC120D7AB4030D900001125D
:100ADE000D93FEF452CBEE42CCEF64077043120D31
:100AEE007AFF700B900001120D93F452E152E2EF77
:100AFE00B4010B900001120D9342E1F452E2120D7B
:100B0E007AB4020A900001120D9342E142E2120DF4
:100B1E007AB4030D900001120D93FFF452E1EF42EF
:040B2E00E27F002240
:1000C6000000000000000000002F000000000700F4
:1000D600070000147F147F1400242A7F2A1200626E
:1000E600640813230036495522500000050300001A
:1000F60000001C224100000041221C000014083EA2
:1001060008140008083E0808000000A06000000867
:1001160008080808000060600000002010080402BB
:10012600003E5149453E0000427F40000042615179
:100136004946002141454B31001814127F10002713
:1001460045454539003C4A494930000171090503D6
:1001560000364949493600064949291E0000363607
:10016600000000005636000000081422410000146A
:100176001414141400004122140800020151090647
:1001860000324959513E007C1211127C007F4949C8
:100196004936003E41414122007F4141221C007FF9
:1001A60049494941007F09090901003E4149497A07
:1001B600007F0808087F0000417F41000020404181
:1001C6003F01007F08142241007F40404040007FED
:1001D600020C027F007F0408107F003E4141413E31
:1001E600007F09090906003E4151215E007F091979
:1001F60029460046494949310001017F0101003F76
:100206004040403F001F2040201F003F4038403FF5
:100216000063140814630007087008070061514959
:10022600454300007F41410000552A552A550000EC
:1002360041417F000004020102040040404040406A
:10024600000001020400002054545478007F484402
:10025600443800384444442000384444487F003839
:100266005454541800087E0901020018A4A4A47C62
:10027600007F080404780000447D4000004080842C
:100286007D00007F102844000000417F4000007C74
:1002960004180478007C0804047800384444443880
:1002A60000FC242424180018242418FC007C0804CC
:1002B600040800485454542000043F444020003CA5
:1002C6004040207C001C2040201C003C4030403C2C
:1002D600004428102844001CA0A0A07C00446454BC
:1002E6004C44141414141414000000000000000000
:1002F6000000000000000000000000F80000000000
:10030600000000333000000000100C06100C060040
:10031600000000000000000040C07840C0784000A7
:10032600043F04043F040400007088FC0830000009
:10033600001820FF211E0000F008F000E018000061
:1003460000211C031E211E0000F00888700000001A
:100356001E2123241927211010160E00000000006C
:100366000000000000000000000000E01804020089
:10037600000000071820400000020418E0000000FA
:100386000040201807000000404080F080404000F8
:100396000202010F01020200000000F0000000004E
:1003A6000101011F01010100000000000000000022
:1003B60080B0700000000000000000000000000097
:1003C6000001010101010101000000000000000020
:1003D60000303000000000000000000080601804BB
:1003E600006018060100000000E010080810E00098
:1003F600000F102020100F00001010F80000000061
:100406000020203F202000000070080808887000A7
:100416000030282422213000003008888848300027
:100426000018202020110E000000C02010F8000047
:1004360000070424243F240000F8088888080800E0
:100446000019212020110E0000E0108888180000F5
:10045600000F112020110E0000380808C8380800C7
:100466000000003F00000000007088080888700047
:10047600001C222121221C0000E010080810E000C8
:100486000000312222110F00000000C0C000000051
:100496000000003030000000000000800000000076
:1004A600000080600000000000008040201008006E
:1004B6000001020408102000404040404040400037
:1004C6000404040404040400000810204080000012
:1004D6000020100804020100007048080808F00017
:1004E6000000003036010000C030C828E810E000E7
:1004F6000718272423140B000000C038E000000072
:10050600203C23020227382008F8888888700000DB
:10051600203F202020110E00C030080808083800AF
:10052600071820202010080008F808080810E00026
:10053600203F202020100F0008F88888E8081000C7
:10054600203F20202320180008F88888E80810009B
:10055600203F200003000000C030080808380000D3
:1005660007182020221E020008F808000008F808D4
:10057600203F210101213F20000808F8080800005B
:100586000020203F2020000000000808F80808008E
:10059600C08080807F00000008F888C02818080006
:1005A600203F20012638200008F80800000000003F
:1005B600203F20202020300008F8F800F8F8080036
:1005C600203F003F003F200008F830C00008F80830
:1005D600203F200007183F00E01008080810E00040
:1005E6000F10202020100F0008F808080808F00057
:1005F600203F210101010000E01008080810E0007A
:100606000F18242438504F0008F88888888870000E
:10061600203F2000030C30200070880808083800AE
:100626000038202121221C00180808F808081800A4
:100636000000203F2000000008F808000008F80825
:10064600001F202020201F000878880000C83808D6
:10065600000007380E010000F80800F80008F8004E
:10066600033C0700073C03000818688080681808E8
:1006760020302C03032C30200838C800C838080066
:100686000000203F2000000010080808C8380800B5
:100696002038262120201800000000FE0202020059
:1006A6000000007F40404000000C30C00000000009
:1006B600000000010638C00000020202FE00000031
:1006C600004040407F0000000000040202020400D7
:1006D6000000000000000000000000000000000014
:1006E60080808080808080800002020400000000FC
:1006F60000000000000000000000808080800000F4
:100706000019242222223F2008F8008080000000E1
:10071600003F112020110E000000008080800000A4
:10072600000E112020201100000000808088F800B3
:10073600000E112020103F200000808080800000E5
:10074600001F222222221300008080F08888881849
:100756000020203F20200000000080808080800054
:10076600006B94949493600008F8008080800000E9
:10077600203F210000203F200080989800000000C4
:100786000020203F202000000000008098980000F4
:1007960000C08080807F000008F800008080800014
:1007A600203F24022D302000000808F80000000039
:1007B6000020203F202000008080808080808000F4
:1007C600203F20003F20003F808000808080000086
:1007D600203F210000203F20000080808080000014
:1007E600001F202020201F00808000808000000045
:1007F60080FFA12020110E00000000808080800074
:10080600000E112020A0FF80808080008080800064
:1008160020203F2120000100000080808080800091
:100826000033242424241900008080E08080000006
:100836000000001F20200000808000000080800053
:10084600001F202020103F208080800000808080B4
:1008560000010E3008060100808000800080808044
:100866000F300C030C300F00008080008080800069
:100876000020312E0E312000808080000080808094
:1008860080818E7018060100008080808080800044
:100896000021302C2221300000000000807C020262
:1008A60000000000003F404000000000FF00000084
:1008B60000000000FF0000000002027C8000000033
:1008C6000040403F0000000000060101020204044F
:0808D60000000000000000001A
:1014C300900002120D936401702A90FE80E0444064
:1014D300F090FE82E4F0120D7A543FFF90FE80E01C
:1014E30054C04FF0900003120D9390FE88B4010294
:1014F3008031802990FE80E054BFF090FE84E4F0B8
:10150300900004120D9325E0FF90FE85E054014FF7
:10151300F0900005120D9390FE85B40106E054FE91
:10152300F08004E04401F0900001120D9390FE80DE
:0C1533007005E0547FF022E04480F022BC
:0800030090FE82E05480FF2210
:0C19260090FE82E030E6F9E054BFF022B1
:0919320090FE817401F0021926F7
:0818970012189F121848AF0659
:0E189F0090FE86EFF090FE817402F002192692
:10183800AE0712193212189F121848AF0512189FD6
:0918480090FE817403F0021926E0
:0F18FA0090FE817404F012192690FE87E0FF2201
:0E19180090FE82E4F090FE817405F002192624
:0F19090090FE827401F090FE817405F0021926A1
:09193B0090FE817406F0021926E9
:0D000E0090FE86EDF090FE81EFF0021926C5
:1018EA00121838120D7AFF12189F12184802193B63
:1000A600121838121932EE4401FF12189F1218481E
:0D00B6001218FAEF120DC012190902193BC1
:0517AD001217B27F10CD
:1017B200AE071219327F7812189F121848E4FF12EE
:0817C200189712184802193BA8
:0517CA00F583E493FF2C
:1017CF00AE071219327F7812189F1218487F4012F5
:0817DF00189712184802193B8B
:10180300AC07ED24B0FF1217B2EC54F0C4540F44EC
:0C18130010FF1217B2EC540FFF0217B2C6
:10178F00E4FDED24B0FF1217B2E4FF1217ADE4FC35
:0D179F00E4FF1217CF0CBC80F70DBD08E56C
:0117AC00221A
:10188000E4F519F51AEFD3947F4004E4FF0D0D122F
:0718900018037F550217CF7A
:06129C00AA07A905AF033B
:1012A200EF24E0FBEAD3947F4004E4FA0909E51550
:1012B20064107050AF02AD01121803E4FD75F01016
:1012C200EBA42DF582E435F0F583E58224EEF58278
:1012D200E58334021217CA0DBD08E2AF02E904FD2C
:1012E200121803E4FD75F010EBA42DF582E435F03D
:1012F200F583E58224F6F582E58334021217CA0DDE
:10130200BD08E222AF02AD01121803E4FD75F0063A
:10131200EB9000C6120F6AE5822DF582E435831246
:0613220017CA0DBD06E72D
:0113280022A2
:0A1677008F098D0A8B0B8A0C890D78
:10168100E4F50FAB0BAA0CA90D1218C2C3E50F9F0D
:10169100E49E5030AB0BAA0CA90D850F8275830017
:1016A100120D93FB850E15AD0AAF0912129C74063B
:1016B1002509F509D394784007E4F509050A050AD7
:0416C100050F80BFD2
:0116C5002202
:041851008F12A90544
:101855007F017E00AD0119ED6009AD127C00120D0E
:03186500D280F13D
:01186800225D
:08114F008F098D0A8A0B8B0C3D
:10115700E4F511F50FE50FC3950D400221F8C3E53E
:101167000D950F14FD7F0A121851AC0BAD0CCFCDA6
:10117700CFCECCCE120DE47C007D0A120DE48D108B
:10118700E5117034E50D14FFE50FC39F502AE510F4
:101197007023E50EB40806C3132402800AE50E6423
:1011A70010704AE50EC313850FF0A42509FF850EBD
:1011B700157B208033751101E50EB40815C3132480
:1011C70002850FF0A42509FFE5102430FB850E15D5
:1011D7008016E50EB41016C313850FF0A42509FF7A
:1011E700E5102430FB850E15AD0A12129C050F2160
:0111F7005C9B
:0111F80022D4
:0616C6008F098D0A8B0B59
:1016CC00AD0A121803E4FDAB0CAA0DA90E120D7A8B
:1016DC00FFEDC39F5008E4FF1217CF0D80E9AD0A50
:1016EC00AF09121803E4FDEDC3950B50087F1812D7
:1016FC0017CF0D80F2AB0CAA0DA90EE50B020DC095
:101441007FAE1217B27F201217AD7FB01217B27F95
:10145100C81217B27F021217AD7F401217B27F81F7
:101461001217B27FFF1217B27FA11217B27FA61215
:1014710017B27FA81217B27F3F1217B27FA41217BB
:10148100B27FD31217B2E4FF1217B27FD51217B28F
:101491007FF01217B27FD91217B27F221217B27FD3
:1014A100DA1217B27F121217B27FDB1217B27F2046
:1014B1001217B27F8D1217B27F141217B27FAF02CB
:0214C10017B260
:0300C3000211F92E
:1011F900C0E0C083C082C0D075D000C006C00790CF
:10120900FE84E030E606E054BFF0807A90FE84E088
:1012190030E535E054DFF0E51760057517008066A5
:10122900E516600D75160090FE87E0F5182400801C
:101239003490FE87E0FFAE18051874002EF582E49D
:101249003400F583EFF0803E90FE84E030E424E042
:1012590054EFF0E030E10890FE8674FFF080270536
:101269001874002518F582E43400F583E090FE86B1
:10127900F0801390FE84E030E30CE054F7F075172A
:1012890001751601D206D007D006D0D0D082D083FE
:03129900D0E03270
:10001E00EFD3940140037FFF22EDD3940340037F7F
:10002E00FF22EF7004C2A98002D2A9ED700553B76A
:10003E00FDC2B9BD010553B7FDD2B9BD020543B727
:0E004E0002C2B9BD030543B702D2B97F00223A
:10161E00EFD3940140037FFF22EBD3940340037F6B
:10162E00FF22BF0112ED90FE817006E0547FF08024
:10163E0011E04480F0800BEF700890FE83E0548739
:10164E004DF0EB700653B6DF53B5DFBB010653B654
:10165E00DF43B520BB020643B62053B5DFBB0306FE
:09166E0043B62043B5207F0022A1
:100B3200AD07ED7079C28C120D7AFED39403400397
:100B42007FFF22E58954FC4EF589900001120D9336
:100B5200FED3940240037FFF22EE7006538E7F5332
:100B620089FB900001120D93B40106438E805389D4
:100B7200FB900001120D93B402034389049000021A
:100B8200120D93FFE58F54FE4FF58F900003120E66
:100B920039E5F0F58C900003120E39F58A900005C4
:100BA200120D937004C28C8002D28C7F0022ED64FD
:100BB2000160028137C28E120D7AFED39403400384
:100BC2007FFF22EEC454F0FFE58954CF4FF58990A0
:100BD2000001120D93FED3940240037FFF22EE70B8
:100BE20006538EBF5389BF900001120D93B40106C4
:100BF200438E405389BF900001120D93B402034308
:100C02008940900002120D9325E0FFE58F54FD4FBD
:100C1200F58F900003120E39E5F0F58D9000031266
:100C22000E39F58B900005120D937004C28E80026E
:100C3200D28E7F0022ED6402705B538EEF90000132
:100C4200120D93FF7006538EFB538EF7EFB401061D
:100C5200438E04538EF7EFB40203438E08900002D2
:100C6200120D9325E025E0FFE58F54FB4FF58F90A1
:100C72000003120E39E5F0F5D6900003120E39F595
:100C8200D7900005120D93C454F0FFE58E54EF4F38
:100C9200F58E7F0022ED6403706853D1F790000156
:100CA200120D93FED3940240037FFF22EE7006538F
:100CB200D1FD53D1FB900001120D93B4010643D133
:100CC2000253D1FB900001120D93B4020343D104ED
:100CD200900002120D93FFE5D154FE4FF5D1900022
:100CE20003120E39E5F0F5D4900003120E39F5D552
:100CF200900005120D9333333354F8FFE5D154F7C6
:100D0200806DED6404706E53D17F900001120D93DB
:100D1200FED3940240037FFF22EE700653D1DF53CD
:100D2200D1BF900001120D93B4010643D12053D1DB
:100D3200BF900001120D93B4020343D14090000210
:100D4200120D93C454F0FFE5D154EF4FF5D190004A
:100D520003120E39FDACF0ECF5D2AF058FD3900043
:100D620005120D93C43333335480FFE5D1547F4FC2
:080D7200F5D17F00227FFF2272
:03000B0002009759
:03009700D2023260
:03001B0002194E79
:03194E00B2EE32C4
:030063000219512E
:03195100B2ED32C2
:03009B00021954F3
:03195400B2EC32C0
:0300A300021957E8
:03195700B2EB32BE
:101335000213B5E493A3F8E493A34003F68001F206
:1013450008DFF48029E493A3F85407240CC8C333B9
:10135500C4540F4420C8834004F456800146F6DF88
:10136500E4800B0102040810204080901949E47EB6
:10137500019360BCA3FF543F30E509541FFEE4937D
:10138500A360010ECF54C025E060A840B8E493A344
:10139500FAE493A3F8E493A3C8C582C8CAC583CA6F
:1013A500F0A3C8C582C8CAC583CADFE9DEE780BE27
:01194D000099
:100D7A00BB010689828A83E0225002E722BBFE0277
:090D8A00E32289828A83E49322AA
:100D9300BB010CE58229F582E5833AF583E0225015
:100DA30006E92582F8E622BBFE06E92582F8E2225F
:0D0DB300E58229F582E5833AF583E4932279
:100DC000BB010689828A83F0225002F722BBFE0112
:020DD000F3220C
:100DD200EF8DF0A4A8F0CF8CF0A428CE8DF0A42E35
:020DE200FE22EF
:100DE400BC000BBE0029EF8DF084FFADF022E4CCF3
:100DF400F875F008EF2FFFEE33FEEC33FCEE9DECBC
:100E0400984005FCEE9DFE0FD5F0E9E4CEFD22ED01
:100E1400F8F5F0EE8420D21CFEADF075F008EF2F4B
:100E2400FFED33FD4007985006D5F0F222C398FD3C
:050E34000FD5F0EA22D9
:100E3900BB0110E58229F582E5833AF583E0F5F0F7
:100E4900A3E0225009E92582F886F008E622BBFED4
:100E59000AE92582F8E2F5F008E222E5832AF5831A
:080E6900E993F5F0A3E99322DF
:100E710075F008758200EF2FFFEE33FECD33CDCC38
:100E810033CCC58233C5829BED9AEC99E5829840BB
:100E91000CF582EE9BFEED9AFDEC99FC0FD5F0D698
:100EA100E4CEFBE4CDFAE4CCF9A88222B800C1B9C2
:100EB1000059BA002DEC8BF084CFCECDFCE5F0CB00
:100EC100F97818EF2FFFEE33FEED33FDEC33FCEB39
:100ED10033FB10D703994004EB99FB0FD8E5E4F9F4
:100EE100FA227818EF2FFFEE33FEED33FDEC33FCE1
:100EF100C933C910D7059BE99A4007EC9BFCE99AD5
:100F0100F90FD8E0E4C9FAE4CCFB2275F010EF2F19
:100F1100FFEE33FEED33FDCC33CCC833C810D70719
:100F21009BEC9AE899400AED9BFDEC9AFCE899F854
:0E0F31000FD5F0DAE4CDFBE4CCFAE4C8F922E7
:100F3F00EB9FF5F0EA9E42F0E99D42F0E89C45F008
:010F4F00227F
:100F5000BB010789828A83020F825005E9F8020FDC
:0A0F600076BBFE05E9F8020F8E22B1
:0C0F6A00A42582F582E5F03583F5832292
:1018C200E4FFFE120D7A600C0FEF70010E09E97051
:0518D200F20A80EF2284
:0C0F7600ECF608EDF608EEF608EFF622A7
:0C0F8200ECF0A3EDF0A3EEF0A3EFF022E2
:0C0F8E00ECF208EDF208EEF208EFF2229F
:00000001FF
