:0A000000021A3DAD077F6A020026D8
:0F000B0002008790FE82E030E6F9E054BFF02259
:10001B0002008EAE07021A490218031219B9121AFE
:10002B0053EE4401FF1219F21219C9121A1FEF12E3
:10003B0005D4121A2E021A5C02172812004BE4FF89
:10004B00AE07121A537F781219F21219C9E4FF1274
:10005B0019EA1219C9021A5C020096E4F5227523FB
:10006B0001F5247525A2752640752701FB7A0079C9
:0F007B0022FF1211A8E4FD7F01021886D209327C
:06008B00021771B2EE3213
:060093000217BAB2ED32C3
:06009B0002009EB2EC32EF
:1000A300021A65F583E493FFAE07121A537F7812A1
:1000B30019F21219C97F401219EA1219C9021A5CFE
:1000C3000214950201E3EC5D046005E85904700332
:1000D3000201D91201A4580460F6EC4860F2EC70F6
:1000E30004FDFEFF22C860DB2481C85009C3986069
:1000F3000250060201E09850CAF582E9294B4A7082
:1001030005AB820201CF75F0007C1A7880C3EF9BA8
:10011300EE9AED99400DC3EF9BFFEE9AFEED99FD2C
:10012300E842F0DC23ACF0D0E0FFD0E0FED0E0FD0D
:10013300AB8220E7101BEB60BAEC2CFCEF33FFEE35
:1001430033FEED33FD0201BBE803F830E705C0F0F1
:1001530075F000EF2FFFEE33FEED33FD40B830E7CF
:10016300C280AA75F020800E75F010800575F00826
:100173007D007E007F003392D530D503120753EC08
:10018300334010EF33FFEE33FEED33FDEC33FCD59C
:10019300F0ED22E5F0247EA2D513CC92E7CDCEFF7D
:1001A30022E9D2E7C933E833F892D5EDD2E7CD336C
:1001B300EC33FC5002B2D522EC30E7100FBF000C39
:1001C3000EBE00080DBD00040BEB6014A2D5EB13AB
:1001D300FCED92E7FD2274FFFCFDFEFF22E480F8B4
:1001E300A2D574FF13FC7D80E480EFF920E7282477
:1001F300F950037907E4F42402FB18DBFDE624FB42
:100203005014E9600DE4F618E604F6B40A08E4F6BF
:10021300D9F57401F60A22C2D522ED33EC3392D517
:10022300FA602AB4FF33EDC2E77BFF60067A0279F6
:1002330042E4227A02794B20D5047A027946224E8F
:10024300614E002B494E46002D494E4600E47A0884
:10025300F608DAFC7B00740722E8C0E0ECC0E0EDAE
:10026300C0E0EEC0E0EFC0E0EA75F010A4CAABF066
:1002730075F04DA42BFBE435F0FCEA2410FAEB34C3
:10028300C5FBEC34D9FCEDC2E7FF75F056A4F424AA
:1002930011C5F0F434C58FF0A42AE5F03BE43CF635
:1002A30020E71412054ED0E0FFD0E0FED0E0FDD0F1
:1002B300E0FC1200C98014F40412054ED0E0FFD014
:1002C300E0FED0E0FDD0E0FC120418D0E0F8E6FA3E
:1002D300EDD2E7CD33EC332482FBE4C3CF33CFCE6F
:1002E30033CECD33CD33DBF37B0775F00A84600463
:1002F300F6081B0AE5F0F6088FF0740AA4FFACF0C9
:100303008EF0740AA42CFEACF050010C8DF0740A2C
:10031300A42CFDE435F0F608DBDE7407220201D9D4
:10032300E86480F8E933E83360110460F0ED33ECFE
:10033300337009E8FCE9FDEAFEEBFF220460DED33B
:10034300EB9FEA9EE99DE8C2E78CF0C2F795F04087
:100353000CE8CCF8E9CDF9EACEFAEBCFFB1201A415
:1003630085D0F05804700320D5B3E8047007500219
:10037300B2D50201E392D5EC0460F7E4CCC0E0C34C
:1003830098F8603B94186008400DD0E0FB0201BB75
:10039300E4FBFAC9FC8028E830E406E4C9FBE4CABC
:1003A300FCE830E305E4C9CACBFCE854076010F865
:1003B300C3E913F9EA13FAEB13FBEC13FCD8F1309E
:1003C300F52FC3E49CFCEF9BFFEE9AFEED99FDD065
:1003D300E0FBEF4E4D4C701222DB030201E0EC2CEC
:1003E300FCEF33FFEE33FEED33FDED30E7EB0201BF
:1003F300BBEF2BFFEE3AFEED39FDD0E0FB50130BC4
:10040300BB00030201E3ED13FDEE13FEEF13FFEC5C
:1004130013FC0201BBEC4D6011E8497017ED33EC9E
:100423003304600DE4FCFFFEFD22E933E83304707E
:10043300F80201D91201A458046009E4CC248150C4
:10044300062850090201E32840030201E0C0E0EB63
:100453004A7044B98006D0E0FB0201CFEF4E701C16
:10046300BD8008EBFFEAFEE9FD80EBE98DF0A4FE19
:10047300E5F0020501E9CDF9EAFEEBFFEF89F0A40F
:10048300FCE5F0CE89F0A42EFFE435F0CD89F0A48D
:100493002DFEE435F08067EF4E7005BD80D780C335
:1004A300EF8BF0A4ACF0EE8BF0A42CFCE435F0F869
:1004B300EF8AF0A42CE5F038FCE433CB8DF0A42CC8
:1004C300FCE5F03BF8EE8AF0A42CFCE5F038F8E408
:1004D30033CF89F0A42CFCE5F038CF3400CE89F07B
:1004E300A42FFFE5F03EFEE433C98DF0A42EFEE514
:1004F300F039CD8AF0A42FFFE5F03EFEE43DFD3355
:10050300D0E0FB50070BBB000F0201E3EC2CFCEF28
:1005130033FFEE33FEED33FD0201BB3F80000041AC
:1005230020000042C80000447A0000461C400047F7
:10053300C35000497424004B1896804CBEBC205A0B
:100543000E1BCA6753C21C749DC5AEFB60065407DD
:10055300601C232312057CEB5438600912056812D2
:100563000577120418ECF8EDF9EEFAEFCB22EB1253
:10057300057780F1543803241C90051EFE93FC0E6E
:10058300EE93FD0EEE930ECE93FF22BB01068982FE
:100593008A83E0225002E722BBFE02E32289828A99
:1005A30083E49322BB010CE58229F582E5833AF5C6
:1005B30083E0225006E92582F8E622BBFE06E92500
:1005C30082F8E222E58229F582E5833AF583E49312
:1005D30022BB010689828A83F0225002F722BBFEE6
:1005E30001F322EF8DF0A4A8F0CF8CF0A428CE8DD8
:1005F300F0A42EFE22BC000BBE0029EF8DF084FF79
:10060300ADF022E4CCF875F008EF2FFFEE33FEECEB
:1006130033FCEE9DEC984005FCEE9DFE0FD5F0E912
:10062300E4CEFD22EDF8F5F0EE8420D21CFEADF011
:1006330075F008EF2FFFED33FD4007985006D5F016
:10064300F222C398FD0FD5F0EA22BB0110E58229FF
:10065300F582E5833AF583E0F5F0A3E0225009E95A
:100663002582F886F008E622BBFE0AE92582F8E235
:10067300F5F008E222E5832AF583E993F5F0A3E98F
:10068300932275F008758200EF2FFFEE33FECD3312
:10069300CDCC33CCC58233C5829BED9AEC99E582F0
:1006A30098400CF582EE9BFEED9AFDEC99FC0FD57C
:1006B300F0D6E4CEFBE4CDFAE4CCF9A88222B8006C
:1006C300C1B90059BA002DEC8BF084CFCECDFCE537
:1006D300F0CBF97818EF2FFFEE33FEED33FDEC335B
:1006E300FCEB33FB10D703994004EB99FB0FD8E5E0
:1006F300E4F9FA227818EF2FFFEE33FEED33FDEC29
:1007030033FCC933C910D7059BE99A4007EC9BFC1E
:10071300E99AF90FD8E0E4C9FAE4CCFB2275F010AA
:10072300EF2FFFEE33FEED33FDCC33CCC833C810CF
:10073300D7079BEC9AE899400AED9BFDEC9AFCE8FD
:1007430099F80FD5F0DAE4CDFBE4CCFAE4C8F9224A
:10075300C3E49FFFE49EFEE49DFDE49CFC22EB9F2B
:10076300F5F0EA9E42F0E99D42F0E89C45F022E86C
:10077300600FECC313FCED13FDEE13FEEF13FFD874
:10078300F122BB010789828A830208475005E9F8F1
:1007930002083BBBFE05E9F802085322BB010DE545
:1007A3008229F582E5833AF5830208125007E92589
:1007B30082F8020805BBFE07E92582F802081EE558
:1007C3008229F582E5833AF58302082BFAE6FB08D2
:1007D30008E6F925F0F618E6CA3AF622D083D08265
:1007E300F8E4937012740193700DA3A393F874014A
:1007F30093F5828883E4737402936860EFA3A3A3E1
:1008030080DFE6FB08E6F908E6FA08E6CBF822E023
:10081300F8A3E0F9A3E0FAA3E0FB22E2FB08E2F984
:1008230008E2FA08E2CBF822E493F8740193F9742E
:100833000293FA740393FB22ECF608EDF608EEF646
:1008430008EFF622ECF0A3EDF0A3EEF0A3EFF02215
:10085300ECF208EDF208EEF208EFF2228F2B8B2C6C
:100863008A2D892EE52B640160030209D5F508F56D
:1008730009F50AF50BF50CF52FF53074402530F525
:10088300827401352FF583E4F00530E530700205FD
:100893002F6480452F70E4E4F52FF5307400253084
:1008A300F5827400352FF583E4F00530E5307002EE
:1008B300052F6480452F70E4AB2CAA2DA92E1205B9
:1008C3008EFFE598543F4FF598EF64C06008EF64DE
:1008D30040600302098A90000212079F7F807E8D89
:1008E3007D5B7C001206C18F348E338D328C31E4F4
:1008F300FFFE7D01FCAB34AA33A932A831C3120732
:100903006140037FFF22C3E49534F534E49533F566
:100913003374019532F532E49531F531AB2CAA2DC0
:10092300A92E9000011205A7FB6401702CC28E53FF
:100933008EFE5389BF5389CF438E40AF34AE33AD60
:1009430032AC3178081207728F8D85348BC2AB536A
:1009530089BF538FFDD28E8062EB64027026538E63
:10096300EF438E01538EF7438E04AF34AE33AD3273
:10097300AC3178081207728FD68534D753AFFB4357
:100983008E1080377FFF22AB2CAA2DA92E12058E45
:10099300FF70139000081205A7B40105438E208051
:1009A3001A538EDF8015EFB480119000081205A74B
:1009B300B40105438780800353877FAB2CAA2DA9FD
:1009C3002E9000071205A77004C29C8002D29C7F60
:1009D3000022E52B64026003020ACEF50DF50EF545
:1009E3000FF510F511F52FF53074E02530F582740D
:1009F30001352FF583E4F00530E5307002052F64EF
:100A030080452F70E4E4F52FF53074802530F582AE
:100A13007400352FF583E4F00530E5307002052FBF
:100A23006480452F70E4AB2CAA2DA92E12058EFFEE
:100A330064C06005EF64407075EFB4C005439A80ED
:100A43008003539A7F90000212079F7F807E8D7DE3
:100A53005B7C001206C18F348E338D328C31E4FF00
:100A6300FE7D01FCAB34AA33A932A831C31207615E
:100A730040037FFF22C3E49534F534E49533F53323
:100A830074019532F532E49531F531538EEF538E7F
:100A9300F7438E04AF34AE33AD32AC31780812076E
:100AA300728FD68534D753AFFB438E1080037FFFFD
:100AB30022AB2CAA2DA92E9000071205A7C454F02F
:100AC300FFE59A54EF4FF59A7F0022E52B6403600C
:100AD30003020C02F512F513F514F515F516F52FAF
:100AE300F53074602530F5827402352FF583E4F018
:100AF3000530E5307002052F6440452F70E4E4F5BE
:100B03002FF53074002530F5827401352FF583E419
:100B1300F00530E5307002052F6440452F70E4ABDB
:100B23002CAA2DA92E12058EFF64C06008EF644025
:100B33006003020BE5EFB4C00543AC80800353AC04
:100B43007F90000212079F7F807E8D7D5B7C001269
:100B530006C18F348E338D328C31E4FFFE7D01FC70
:100B6300AB34AA33A932A831C312076140037FFF14
:100B730022C3E49534F534E49533F53374019532A7
:100B8300F532E49531F531AB2CAA2DA92E90000155
:100B93001205A7FBB4031D43AC40AF34AE33AD32F3
:100BA300AC3178081207728FD48534D553D1F04312
:100BB300D10A8031EB64027026538EEF53ACBF53DE
:100BC3008EF7438E04AF34AE33AD32AC31780812B6
:100BD30007728FD68534D753AFFB438E1080067FC1
:100BE300FF227FFF22AB2CAA2DA92E90000712050E
:100BF300A7C454F0FFE5AC54EF4FF5AC7F0022E5FA
:100C03002B64046003020D36F517F518F519F51A70
:100C1300F51BF52FF53074A02530F5827402352FBE
:100C2300F583E4F00530E5307002052F6420452F8D
:100C330070E4E4F52FF53074C02530F58274013586
:100C43002FF583E4F00530E5307002052F6420456D
:100C53002F70E4AB2CAA2DA92E12058EFF64C06061
:100C630008EF64406003020D19EFB4C005438480AC
:100C7300800353847F90000212079F7F807E8D7DC7
:100C83005B7C001206C18F348E338D328C31E4FFCE
:100C9300FE7D01FCAB34AA33A932A831C31207612C
:100CA30040037FFF22C3E49534F534E49533F533F1
:100CB30074019532F532E49531F531AB2CAA2DA9A7
:100CC3002E9000011205A7FBB4041D438440AF34EA
:100CD300AE33AD32AC3178081207728FD28534D37C
:100CE30053D10F43D1A08031EB64027026538EEFB2
:100CF3005384BF538EF7438E04AF34AE33AD32AC5F
:100D03003178081207728FD68534D753AFFB438EE1
:100D13001080067FFF227FFF22AB2CAA2DA92E90E5
:100D230000071205A7C454F0FFE58454EF4FF58480
:100D33007F00227FFF22E5392425F8E60539227852
:100D4300223007027825E475F0011207CF02058EE1
:100D53002000EB7F2ED2008018EF540F2490D43460
:100D630040D4FF30040BEF24BFB41A0050032461B6
:100D7300FFE53A6002153A053DE53D7002053C305A
:100D8300070D7822E475F0011207CFEF0205D402B4
:100D9300001E7403D2078003E4C207F5398B228A4D
:100DA300238924E4F53AF53CF53DE53A60077F20D5
:100DB300120D7480F5753BFFC201C200C202C2036B
:100DC300C205C206C208120D42FF700D3007057F2F
:100DD30000120D85AF3DAE3C22B4255FC2D5C204DF
:100DE300120D42FF24D0B40A00501A75F00A783A63
:100DF30030D50508B6FF0106C6A426F620D5047033
:100E030002D20380D924CFB41A00EF5004C2E5D232
:100E130004021072D20180C6D20080C0D20280BC0C
:100E2300D2D580BAD20580B47F20120D7420020778
:100E33007401B53A0040F1120D39FF120D74020D21
:100E4300ADD208D2068095120D39FB120D39FA1274
:100E53000D39F94A4B700679697A117BFF20022E0E
:100E6300E53A602A7E008E827583001205A760062C
:100E73000EEE653B70F0C2D5EBC0E0EAC0E0E9C01E
:100E8300E0EE1210D2D0E0F9D0E0FAD0E0FB120588
:100E93008EFF60AAEBC0E0EAC0E0E9C0E0120D7487
:100EA300D0E02401F9D0E03400FAD0E0FBE53B04C4
:100EB30060DCD53BD98087D20280A21210B560F7DF
:100EC300E53B7001041201EEA93B600DE53B6009AF
:100ED30014F53B12115CEF60F3EA30E702F404C34C
:100EE300995077EAF4253B0430E701E404F53B80AD
:100EF3000D1210B560C1EA053B253B1201EEEA78FD
:100F030038F630E701E4253B04D53B042005011402
:100F13001210D2E4C0E012115C7838E6601320E7C7
:100F23000714F6120D5C802204F6D0E014C0E07FB3
:100F330000120D5CE53B6007120D53153B800B302F
:100F43000503120D53D0E0020DADD0E00480C512AD
:100F530010B560A0E53B041201EE7838EAF6E53BF4
:100F630020050260010424041210D274FF04C0E0BF
:100F730012115C120D5CE53B2005026003120D5358
:100F8300D0E0B53BE87F45120D667838E67F2B301D
:100F9300E7047F2DF404C0E0120D74D0E075F00A6D
:100FA30084C0F0120D5DD0E0120D5D020DAD79101D
:100FB30080027908C206C2088008D2D5790A800463
:100FC300790AC2D5E53B047002F53BE4FAFDFEFF66
:100FD300120D39FC7B08200113120D39FD7B1030F3
:100FE300000A120D39FE120D39FF7B20EC3382D536
:100FF30092D55013C3E43000069FFFE49EFEE42025
:1010030001039DFDE49CFCE4CBF8C201EC700CCF22
:10101300CECDCCE824F8F870F38017C3EF33FFEE9E
:1010230033FEED33FDEC33FCEB33FB994002FB0F56
:10103300D8E9EB300105F8D0E0C448B201C0E00ABA
:10104300EC4D4E4F78207B0070C2EAB53B0040BCAC
:10105300C0E01210D4D0F0D0E0200104C4C0E0C43A
:10106300B201C0F0120D5DD0F0D5F0EB020DAD1260
:1010730007DF0E4A530FB1580E1B4C0E17420FB524
:101083004F0FBD440FBD490E30430FC3550EF446F9
:101093000F52450EBE471189500E1F2D0E232E0EE3
:1010A300462B0E27230E442011722A0DDF48000021
:1010B3000E3EE53BB4FF03753B06120D39FC120DE2
:1010C30039FD120D39FE120D39FF783102021D79F7
:1010D3000AA2D5200314300509B910020404B90883
:1010E3000104A2D52006025001042002689202B531
:1010F3003A005034C0E07F203003197F30A20272DF
:10110300067205500F12112BC202C206C205C20895
:101113007F30800F300503E9C0E0120D7430050302
:10112300D0E0F9D0E0B53ACC3005177F30B9100CD8
:10113300120D747F583004077F788003B9080312B7
:101143000D743002057F2D020D747F202008F87F77
:101153002B2006F322920280CF7F00B407005005B4
:101163002431F8E6FF22286E756C6C2900D2011237
:101173000D393001F8C201783A30D50108F6020D75
:10118300DF2D50434958120D392403B405004001A3
:10119300E490118493120D65743A120D65D20375B0
:1011A3003A04020FB1AD07ED7079C28C12058EFEC1
:1011B300D3940340037FFF22E58954FC4EF58990C5
:1011C30000011205A7FED3940240037FFF22EE70B5
:1011D30006538E7F5389FB9000011205A7B40106C5
:1011E300438E805389FB9000011205A7B402034389
:1011F30089049000021205A7FFE58F54FE4FF58F77
:1012030090000312064DE5F0F58C90000312064D95
:10121300F58A9000051205A77004C28C8002D28C57
:101223007F0022ED640160030212AEC28E12058EAE
:10123300FED3940340037FFF22EEC454F0FFE589FD
:1012430054CF4FF5899000011205A7FED3940240B5
:10125300037FFF22EE7006538EBF5389BF900001B8
:101263001205A7B40106438E405389BF90000112B3
:1012730005A7B402034389409000021205A725E0A5
:10128300FFE58F54FD4FF58F90000312064DE5F0F7
:10129300F58D90000312064DF58B9000051205A7FE
:1012A3007004C28E8002D28E7F0022ED6402705BD6
:1012B300538EEF9000011205A7FF7006538EFB5368
:1012C3008EF7EFB40106438E04538EF7EFB4020397
:1012D300438E089000021205A725E025E0FFE58F65
:1012E30054FB4FF58F90000312064DE5F0F5D690B1
:1012F300000312064DF5D79000051205A7C454F05C
:10130300FFE58E54EF4FF58E7F0022ED6403706886
:1013130053D1F79000011205A7FED3940240037F37
:10132300FF22EE700653D1FD53D1FB90000112054D
:10133300A7B4010643D10253D1FB9000011205A7C4
:10134300B4020343D1049000021205A7FFE5D15470
:10135300FE4FF5D190000312064DE5F0F5D4900051
:101363000312064DF5D59000051205A73333335408
:10137300F8FFE5D154F7806DED6404706E53D17FAF
:101383009000011205A7FED3940240037FFF22EED3
:10139300700653D1DF53D1BF9000011205A7B401EA
:1013A3000643D12053D1BF9000011205A7B4020315
:1013B30043D1409000021205A7C454F0FFE5D15475
:1013C300EF4FF5D190000312064DFDACF0ECF5D2D2
:1013D300AF058FD39000051205A7C4333333548070
:1013E300FFE5D1547F4FF5D17F00227FFF2243BA1F
:1013F300801219A01200661219D21219391215CAD5
:101403001219667BFF7A2379C0752710E4FDFF125A
:101413001846D2AFC20A1216CD300947C209054891
:10142300E54870020547C394E8E547940340342038
:101433000A311216CD121902E47FB87E06FDFCAB09
:1014430042AA41A940A83FC3120761700B1216CDEF
:101453007BFF7A2379C98008D20A7BFF7A2379DC60
:10146300120D9B3090B3121902AF42AE41AD40ACA6
:101473003FE4120166E4FBFA79A078411200C98FB8
:10148300288E278D268C257BFF7A2379E5120D9BE9
:101493008087C0E0C083C082C0D075D000C006C0C2
:1014A3000790FE84E030E606E054BFF0807A90FEB9
:1014B30084E030E535E054DFF0E51D6005751D007F
:1014C3008066E51C600D751C0090FE87E0F51E2408
:1014D300C0803490FE87E0FFAE1E051E74C02EF55B
:1014E30082E43402F583EFF0803E90FE84E030E442
:1014F30024E054EFF0E030E10890FE8674FFF080C2
:1015030027051E74C0251EF582E43402F583E0909E
:10151300FE86F0801390FE84E030E30CE054F7F095
:10152300751D01751C01D20BD007D006D0D0D08217
:10153300D083D0E032AA07A905AF03EF24E0FBEA8A
:10154300D3947F4004E4FA0909E52C64107050AF8A
:1015530002AD01121984E4FD75F010EBA42DF582A0
:10156300E435F0F583E5822490F582E583341C129B
:1015730000A60DBD08E2AF02E904FD121984E4FDE3
:1015830075F010EBA42DF582E435F0F583E58224A4
:1015930098F582E583341C1200A60DBD08E222AF44
:1015A30002AD01121984E4FD75F006EBA42468F57D
:1015B30082E5F0341AF583E5822DF582E435831252
:1015C30000A60DBD06E2227FAE1200467F10120078
:1015D3004B7F4012004B7F8112004B7FCF12004B99
:1015E3007FA112004B7FC812004B7FA612004B7FD6
:1015F300A812004B7F3F12004B7FD31200467FD5CA
:1016030012004B7F8012004B7FD912004B7FF112E7
:10161300004B7FDA12004B7F1212004B7FDB12006C
:101623004B7F4012004B7F2012004B7F0212004B76
:101633007F8D12004B7F1412004B7FA412004B7F4F
:10164300A612004B7F2E12004B7FAF02004B90007F
:10165300021205A76401702A90FE80E04440F090D6
:10166300FE82E4F012058E543FFF90FE80E054C0EA
:101673004FF09000031205A790FE88B40102803159
:10168300802990FE80E054BFF090FE84E4F0900047
:10169300041205A725E0FF90FE85E054014FF0906A
:1016A30000051205A790FE85B40106E054FEF08004
:1016B30004E04401F09000011205A790FE8070053C
:1016C300E0547FF022E04480F0227D807F04121AF0
:1016D300107D027F51121A107DCD7F9B121A10E4E8
:1016E300FD7F9A121A107D887F88121A107D707FF1
:1016F30089121A107DD67F99121A107D067F9812CF
:101703001A107D597F18121A107D047F71121A1056
:101713007DD57F22121A107DD37F1F121A107D20D0
:101723007F2B021A10C0E0C083C082C0D075D000E6
:10173300C007E59A30E021539AFEE510C394804038
:1017430003751000AF10051074802FF582E4340088
:10175300F583E59BF0751105E59A30E106539AFD93
:10176300750F00D007D0D0D082D083D0E032C0E054
:10177300C083C082C0D075D000C007E5AC30E02183
:1017830053ACFEE515C394404003751500AF150532
:101793001574002FF582E43401F583E5ADF0751679
:1017A30005E5AC30E10653ACFD751400D007D0D08D
:1017B300D082D083D0E032C0E0C083C082C0D07575
:1017C300D000C007E58430E0215384FEE51AC394BA
:1017D300204003751A00AF1A051A74C02FF582E46E
:1017E3003401F583E585F0751B05E58430E1065387
:1017F30084FD751900D007D0D0D082D083D0E032D9
:10180300C0E0C083C082C0D075D000C0073098202C
:10181300C298E50BC394804003750B00AF0B050B17
:1018230074002FF582E43400F583E599F0750C0517
:10183300309905C299750A00D007D0D0D082D083E1
:10184300D0E0328F228D238B248A258926E4F52844
:10185300AB24AA25A9268528827583001205A7FB38
:10186300602085272CAD23AF22121538740825225A
:10187300F522D394784007E4F522052305230528B0
:1018830080CE22EFD3940140037FFF22EDD3940354
:1018930040037FFF22EF7004C2A98002D2A9ED703A
:1018A3000553B7FDC2B9BD010553B7FDD2B9BD029A
:1018B3000543B702C2B9BD030543B702D2B97F00DE
:1018C30022EFD3940140037FFF22EDD3940340031F
:1018D3007FFF22EF7004C2AC8002D2ACED700553DF
:1018E300B7EFC2BCBD010553B7EFD2BCBD02054380
:1018F300B710C2BCBD030543B710D2BC7F00227B27
:10190300007A00793F8B228A2389247B007A00792D
:10191300257FE41200037B007A0079267FE512001D
:1019230003E525FEE526FFEE3395E0FDFCAB22AA99
:1019330023A92402078575224075230175270075A5
:1019430026C2752501752400752901E4F52AFB7A61
:101953000079227F0112085F7D017F011218C453B1
:10196300A23F22E4FDED24B0FF1200467F101200D7
:101973004BE4FCE4FF1200AB0CBC80F70DBD08E5A3
:1019830022AC07ED24B0FF12004BEC54F0C4540F0B
:101993004410FF12004BEC540FFF02004B5393FC17
:1019A3005394FC53B1F353B2F353B1FC53B2FC431E
:1019B30091015392FE22AE07121A531219F2121911
:1019C300C9AF051219F290FE817403F002000E757F
:1019D3002401752301752220E4F525FB7A00792281
:1019E30012165153BACF221219F21219C9AF069027
:1019F300FE86EFF090FE817402F002000E1219B918
:101A030012058EFF1219F21219C9021A5C8D22AD4A
:101A1300077B007A0079227F6A021A0090FE8174A4
:101A230004F012000E90FE87E0FF2290FE82740104
:101A3300F090FE817405F002000E787FE4F6D8FD85
:101A43007581480213F18F99750A01E50A70FC222A
:101A530090FE817401F002000E90FE817406F00284
:101A6300000EB2EB320000000000000000002F0067
:101A73000000000700070000147F147F1400242ACD
:101A83007F2A12006264081323003649552250004E
:101A9300000503000000001C224100000041221C3D
:101AA300000014083E08140008083E08080000005F
:101AB300A06000000808080808000060600000003B
:101AC3002010080402003E5149453E0000427F4079
:101AD30000004261514946002141454B3100181431
:101AE300127F10002745454539003C4A49493000DB
:101AF3000171090503003649494936000649492958
:101B03001E000036360000000056360000000814A0
:101B1300224100001414141414000041221408007C
:101B2300020151090600324959513E007C1211123B
:101B33007C007F49494936003E41414122007F41B3
:101B430041221C007F49494941007F0909090100DD
:101B53003E4149497A007F0808087F0000417F41E0
:101B630000002040413F01007F08142241007F40D4
:101B7300404040007F020C027F007F0408107F007A
:101B83003E4141413E007F09090906003E41512182
:101B93005E007F0919294600464949493100010180
:101BA3007F0101003F4040403F001F2040201F00B5
:101BB3003F4038403F00631408146300070870086F
:101BC3000700615149454300007F41410000552A08
:101BD300552A55000041417F000004020102040020
:101BE300404040404000000102040000205454548F
:101BF30078007F4844443800384444442000384443
:101C030044487F00385454541800087E09010200E8
:101C130018A4A4A47C007F080404780000447D4039
:101C230000004080847D00007F10284400000041B4
:101C33007F4000007C04180478007C0804047800CA
:101C4300384444443800FC2424241800182424185D
:101C5300FC007C0804040800485454542000043F4A
:101C6300444020003C4040207C001C2040201C00BD
:101C73003C4030403C004428102844001CA0A0A055
:101C83007C004464544C44141414141414000000D1
:101C93000000000000000000000000000000000041
:101CA300F800000000000000333000000000100CBA
:101CB30006100C0600000000000000000040C07881
:101CC30040C0784000043F04043F040400007088CF
:101CD300FC08300000001820FF211E0000F008F06F
:101CE30000E018000000211C031E211E0000F00864
:101CF30088700000001E2123241927211010160EBE
:101D030000000000000000000000000000000000D0
:101D1300E01804020000000007182040000002043D
:101D230018E0000000004020180700000040408039
:101D3300F0804040000202010F0102020000000097
:101D4300F0000000000101011F010101000000007B
:101D5300000000000080B0700000000000000000E0
:101D63000000000000000101010101010100000069
:101D73000000000000003030000000000000000000
:101D83000080601804006018060100000000E010E5
:101D9300080810E000000F102020100F00001010A2
:101DA300F8000000000020203F2020000000700801
:101DB30008088870000030282422213000003008F1
:101DC30088884830000018202020110E000000C031
:101DD3002010F8000000070424243F240000F80822
:101DE30088880808000019212020110E0000E01047
:101DF3008888180000000F112020110E00003808F9
:101E030008C83808000000003F0000000000708888
:101E13000808887000001C222121221C0000E01009
:101E2300080810E0000000312222110F000000001A
:101E3300C0C00000000000003030000000000000BF
:101E430080000000000000806000000000000080AF
:101E53004020100800000102040810200040404008
:101E6300404040400004040404040404000008103B
:101E73002040800000002010080402010000704888
:101E8300080808F0000000003036010000C030C828
:101E930028E810E0000718272423140B000000C0D3
:101EA30038E0000000203C23020227382008F8888D
:101EB3008888700000203F202020110E00C03008C9
:101EC3000808083800071820202010080008F80820
:101ED300080810E000203F202020100F0008F88899
:101EE30088E8081000203F20202320180008F888E5
:101EF30088E8081000203F200003000000C03008DD
:101F0300080838000007182020221E020008F808DD
:101F1300000008F808203F210101213F20000808A4
:101F2300F8080800000020203F20200000000008DF
:101F330008F8080800C08080807F00000008F88847
:101F4300C028180800203F20012638200008F80880
:101F53000000000000203F20202020300008F8F877
:101F630000F8F80800203F003F003F200008F83049
:101F7300C00008F808203F200007183F00E01008C1
:101F8300080810E0000F10202020100F0008F808A8
:101F9300080808F000203F210101010000E01008BB
:101FA300080810E0000F18242438504F0008F88860
:101FB3008888887000203F2000030C302000708840
:101FC30008080838000038202121221C00180808BE
:101FD300F8080818000000203F2000000008F80857
:101FE300000008F808001F202020201F0008788820
:101FF3000000C83808000007380E010000F8080088
:10200300F80008F800033C0700073C0300081868C1
:10201300808068180820302C03032C30200838C82F
:1020230000C83808000000203F2000000010080806
:1020330008C8380800203826212020180000000096
:10204300FE020202000000007F40404000000C300E
:10205300C000000000000000010638C000000202BA
:1020630002FE000000004040407F0000000000042A
:102073000202020400000000000000000000000053
:102083000000000000808080808080808000020249
:1020930004000000000000000000000000000080B9
:1020A30080808000000019242222223F2008F800AB
:1020B3008080000000003F112020110E000000006E
:1020C3008080800000000E112020201100000000FD
:1020D300808088F800000E112020103F200000802F
:1020E3008080800000001F222222221300008080B3
:1020F300F0888888180020203F20200000000080FE
:102103008080808000006B94949493600008F800B2
:102113008080800000203F210000203F2000809825
:1021230098000000000020203F2020000000000055
:10213300809898000000C08080807F000008F8002D
:102143000080808000203F24022D302000000808FA
:10215300F8000000000020203F2020000080808045
:102163008080808000203F20003F20003F8080004F
:102173008080800000203F210000203F200000805D
:102183008080800000001F202020201F008080000E
:10219300808000000080FFA12020110E00000000BD
:1021A3008080808000000E112020A0FF808080802E
:1021B300008080800020203F21200001000000805B
:1021C3008080808000003324242424190000808030
:1021D300E0808000000000001F20200000808000BD
:1021E3000000808000001F202020103F208080807E
:1021F300000080808000010E30080601008080000E
:1022030080008080800F300C030C300F0000808032
:1022130000808080000020312E0E312000808080DD
:10222300000080808080818E70180601000080800D
:1022330080808080000021302C22213000000000AB
:1022430000807C020200000000003F4040000000CC
:1022530000FF00000000000000FF00000000020279
:102263007C800000000040403F00000000000601A9
:10227300010202040400000000000000001090FFAF
:1022830090102024A4643E62A322202000000000BA
:10229300000000000000000000000000000601FF35
:1022A300000182611E000000FE0102020000000026
:1022B3000000000000000000000000000010945324
:1022C300321E325210007E4242427E000000000065
:1022D30000000000000000000000000000000000FB
:1022E300FF49494949494949FF00000000000000EE
:1022F3000000000000000000000000000040404219
:10230300424242C242424242424240400000000036
:10231300000000000000000000000000000020702A
:10232300282423202020242830E00000000000007F
:10233300000000000000000000000000002424A4AE
:10234300FEA3220022CC0000FF00000000000000DA
:10235300000000000000000000000000000806016B
:10236300FF00010404040404FF0202020000000051
:10237300000000000000000000000000001010102A
:10238300FF109008888888FF88888808000000006C
:102393000000000000000000000000000004448270
:1023A3007F01808040432C1028468180000000007C
:1023B30000000000000000000000000000464D2067
:1023C300526164696F00547279696E6720746F207B
:1023D30073657420464D0D0A0053657420464D0DF8
:1023E3000A004672657175656E63793A2025352E4C
:0523F30031660D0A0037
:00000001FF
