:10000000020AB31214457F141213D1AE07EE30E684
:10001000077D807F14121449EE20E0030200B67BB6
:10002000017A0079407F21120F788F45E52B452A10
:10003000452970030200B4E4F519E519C39545504C
:1000400073AB29AA2AA92BAF46EF3395E08F82F52F
:1000500083120667FF74402519F582E43400F583A6
:10006000E06F702B0546AF46EF3395E08F82F58346
:10007000120667703BFD7F14121449E4F5F4F5DCB9
:1000800090FE07F07F0AFE12141575C76080FEAB64
:1000900029AA2AA92B12064EFF74402519F582E4DD
:1000A0003400F583E0B507057546018003E4F546A5
:1000B00005198086D200221214341200C2AF061233
:1000C000143490FE817403F0021498020B3FF9205F
:1000D000E72824F950037907E4F42402FB18DBFD38
:1000E000E624FB5014E9600DE4F618E604F6B40AC1
:1000F00008E4F6D9F57401F60A22C2D522ED33ECF4
:100100003392D5FA602AB4FF33EDC2E77BFF600675
:100110007A017922E4227A01792B20D5047A0179B7
:1001200026224E614E002B494E46002D494E460078
:10013000E47A08F608DAFC7B00740722E8C0E0ECF9
:10014000C0E0EDC0E0EEC0E0EFC0E0EA75F010A462
:10015000CAABF075F04DA42BFBE435F0FCEA24109B
:10016000FAEB34C5FBEC34D9FCEDC2E7FF75F05671
:10017000A4F42411C5F0F434C58FF0A42AE5F03BB3
:10018000E43CF620E7141204CED0E0FFD0E0FED02D
:10019000E0FDD0E0FC1204018014F4041204CED07F
:1001A000E0FFD0E0FED0E0FDD0E0FC1202F8D0E0AD
:1001B000F8E6FAEDD2E7CD33EC332482FBE4C3CF8B
:1001C00033CFCE33CECD33CD33DBF37B0775F00A9F
:1001D000846004F6081B0AE5F0F6088FF0740AA4A0
:1001E000FFACF08EF0740AA42CFEACF050010C8D24
:1001F000F0740AA42CFDE435F0F608DBDE74072267
:10020000020543E86480F8E933E83360110460F0E4
:10021000ED33EC337009E8FCE9FDEAFEEBFF220464
:1002200060DED3EB9FEA9EE99DE8C2E78CF0C2F75F
:1002300095F0400CE8CCF8E9CDF9EACEFAEBCFFB2B
:1002400012050E85D0F05804700320D5B3E8047071
:10025000075002B2D502054D92D5EC0460F7E4CC0C
:10026000C0E0C398F8603B94186008400DD0E0FBF4
:10027000020525E4FBFAC9FC8028E830E406E4C95D
:10028000FBE4CAFCE830E305E4C9CACBFCE8540748
:100290006010F8C3E913F9EA13FAEB13FBEC13FC53
:1002A000D8F130F52FC3E49CFCEF9BFFEE9AFEEDF6
:1002B00099FDD0E0FBEF4E4D4C701222DB0302059E
:1002C0004AEC2CFCEF33FFEE33FEED33FDED30E76F
:1002D000EB020525EF2BFFEE3AFEED39FDD0E0FBFA
:1002E00050130BBB000302054DED13FDEE13FEEFA3
:1002F00013FFEC13FC020525EC4D6011E849701763
:10030000ED33EC3304600DE4FCFFFEFD22E933E83D
:10031000330470F802054312050E58046009E4CC5A
:100320002481500628500902054D28400302054A41
:10033000C0E0EB4A7044B98006D0E0FB020539EF1B
:100340004E701CBD8008EBFFEAFEE9FD80EBE98DF5
:10035000F0A4FEE5F00203E1E9CDF9EAFEEBFFEFE0
:1003600089F0A4FCE5F0CE89F0A42EFFE435F0CDB1
:1003700089F0A42DFEE435F08067EF4E7005BD8056
:10038000D780C3EF8BF0A4ACF0EE8BF0A42CFCE490
:1003900035F0F8EF8AF0A42CE5F038FCE433CB8D8F
:1003A000F0A42CFCE5F03BF8EE8AF0A42CFCE5F080
:1003B00038F8E433CF89F0A42CFCE5F038CF3400D2
:1003C000CE89F0A42FFFE5F03EFEE433C98DF0A402
:1003D0002EFEE5F039CD8AF0A42FFFE5F03EFEE4D5
:1003E0003DFD33D0E0FB50070BBB000F02054DEC89
:1003F0002CFCEF33FFEE33FEED33FD020525020545
:100400004DEC5D046005E8590470030205431205D4
:100410000E580460F6EC4860F2EC7004FDFEFF221A
:10042000C860DB2481C85009C398600250060205E9
:100430004A9850CAF582E9294B4A7005AB820205F9
:100440003975F0007C1A7880C3EF9BEE9AED9940E5
:100450000DC3EF9BFFEE9AFEED99FDE842F0DC2321
:10046000ACF0D0E0FFD0E0FED0E0FDAB8220E710A2
:100470001BEB60BAEC2CFCEF33FFEE33FEED33FDEB
:10048000020525E803F830E705C0F075F000EF2F0E
:10049000FFEE33FEED33FD40B830E7C280AA3F8067
:1004A00000004120000042C80000447A0000461CC1
:1004B000400047C35000497424004B1896804CBE3E
:1004C000BC205A0E1BCA6753C21C749DC5AEFB608C
:1004D000065407601C23231204FCEB5438600912F5
:1004E00004E81204F71202F8ECF8EDF9EEFAEFCB9B
:1004F00022EB1204F780F1543803241C90049EFE72
:1005000093FC0EEE93FD0EEE930ECE93FF22E9D2F6
:10051000E7C933E833F892D5EDD2E7CD33EC33FCBD
:100520005002B2D522EC30E7100FBF000C0EBE0017
:10053000080DBD00040BEB6014A2D5EB13FCED928B
:10054000E7FD2274FFFCFDFEFF22E480F8A2D574D3
:10055000FF13FC7D80E480EFE709F608DFFA8046B0
:10056000E709F208DFFA803E88828C83E709F0A36E
:10057000DFFA8032E309F608DFFA8078E309F2084F
:10058000DFFA807088828C83E309F0A3DFFA80644D
:1005900089828A83E0A3F608DFFA805889828A83F9
:1005A000E0A3F208DFFA804C80D280FA80C680D4C3
:1005B000806980F28033801080A680EA809A80A8CB
:1005C00080DA80E280CA803389828A83ECFAE493FD
:1005D000A3C8C582C8CCC583CCF0A3C8C582C8CC8B
:1005E000C583CCDFE9DEE7800D89828A83E493A3AB
:1005F000F608DFF9ECFAA9F0EDFB2289828A83EC98
:10060000FAE0A3C8C582C8CCC583CCF0A3C8C58214
:10061000C8CCC583CCDFEADEE880DB89828A83E44C
:1006200093A3F208DFF980CC88F0EF60010E4E60F2
:10063000C388F0ED2402B4040050B9F582EB240223
:10064000B4040050AF23234582239005A873BB0157
:100650000689828A83E0225002E722BBFE02E3225F
:1006600089828A83E49322BB010CE58229F582E525
:10067000833AF583E0225006E92582F8E622BBFEA4
:1006800006E92582F8E222E58229F582E5833AF53A
:1006900083E49322BB010689828A83F0225002F709
:1006A00022BBFE01F322EF8DF0A4A8F0CF8CF0A4C2
:1006B00028CE8DF0A42EFE22BC000BBE0029EF8DAB
:1006C000F084FFADF022E4CCF875F008EF2FFFEED8
:1006D00033FEEC33FCEE9DEC984005FCEE9DFE0FE6
:1006E000D5F0E9E4CEFD22EDF8F5F0EE8420D21C41
:1006F000FEADF075F008EF2FFFED33FD4007985089
:1007000006D5F0F222C398FD0FD5F0EA22E88FF06B
:10071000A4CC8BF0A42CFCE98EF0A42CFC8AF0ED88
:10072000A42CFCEA8EF0A4CDA8F08BF0A42DCC383C
:1007300025F0FDE98FF0A42CCD35F0FCEB8EF0A474
:10074000FEA9F0EB8FF0A4CFC5F02ECD39FEE43C2E
:10075000FCEAA42DCE35F0FDE43CFC22ECF0A3ED48
:10076000F0A3EEF0A3EFF022FAE6FB0808E6F92585
:10077000F0F618E6CA3AF622D083D082F8E49370F5
:1007800012740193700DA3A393F8740193F58288FA
:1007900083E4737402936860EFA3A3A380DFEC8EFD
:1007A000F0A4CCC5F0CCCDF8EFA4CEC5F02DFDE47F
:1007B0003CFCE8A42EC8C5F03DFDE43CFCEFA4FFE2
:1007C000E5F028FEE43DFDE43CFC22E53D54806478
:1007D000807055E5407051E53F704DE54464024539
:1007E00043600302089CE53D540F14601514602E0D
:1007F0002402600302089CE5427004E54160140293
:10080000089CE54764047008E5427004E541600314
:1008100002089C754BFF754C1E754DCA8074E547E8
:1008200064047004E54260028072E541540FF519DA
:10083000E541146033247F600304705E7E00740120
:10084000A819088005C333CE33CED8F9FFEF554E33
:10085000600B754BFF754C1E754DCC8009754BFFB9
:10086000754C1E754DCA802A7E007401A819088037
:1008700005C333CE33CED8F9FFEF554F600B754B20
:10088000FF754C1E754DCC8009754BFF754C1E7560
:100890004DCA754900754A02800580000214A412F1
:1008A000148B221211F243BA30120C52121353E479
:1008B000F52EE52EC454F02418FFAB2EE4FD1210E3
:1008C00074052EE52EC3940540E87BFF7A1479E881
:1008D000750D107D027F1812113C7514107B217D5F
:1008E000027F6C120BCA0526E52670020525750CE1
:1008F00005750D10FBAA257D047F10120975750C76
:1009000005750D08AB26AA257D057F5012097505D2
:1009100031E53170020530C39405E530940040AAFA
:10092000E4F530F5310533E533700205329410E516
:100930003294004005E4F532F533E53375F008A450
:10094000FF7514087B2E7D07120BCAE53345327004
:100950000F7514087B207D077F78120BCA0208CA26
:10096000E5331475F008A4FF7514087B207D071289
:100970000BCA0208CA8F088D098A0A8B0BE4F5108E
:10098000F50EE50EC3950C4003020A20C3E50C9555
:100990000E14FD7F0A1213FDAC0AAD0BCFCDCFCEE6
:1009A000CCCE1206B87C007D0A1206B88D0FE51079
:1009B0007034E50C14FFE50EC39F502AE50F702339
:1009C000E50DB40806C3132402800AE50D64107017
:1009D0004AE50DC313850EF0A42508FF850D147B91
:1009E000208033751001E50DB40815C3132402856A
:1009F0000EF0A42508FFE50F2430FB850D148016AA
:100A0000E50DB41016C313850EF0A42508FFE50FFD
:100A10002430FB850D14AD09120BCA050E020982A4
:100A200022E53D5480648060028070E54024FE60D1
:100A30001814602624027063754BFF754C1E754DAB
:100A40004B754900754A128055754BFF754C1E75E4
:100A50004D5D754900754A438044E53F14601814A4
:100A6000602624027033754BFF754C1E754DA075C2
:100A70004900754A048027754BFF754C1E754DA4BF
:100A8000754900754A088016754BFF754C1E754DEB
:100A9000AC754900754A1E800580000214A4D3E598
:100AA0004A9544E5499543400685434985444A12A1
:100AB000148B22787FE4F6D8FD758156020AFA027B
:100AC00008A3E493A3F8E493A34003F68001F2089B
:100AD000DFF48029E493A3F85407240CC8C333C47B
:100AE000540F4420C8834004F456800146F6DFE4E6
:100AF000800B0102040810204080901228E47E013F
:100B00009360BCA3FF543F30E509541FFEE493A358
:100B100060010ECF54C025E060A840B8E493A3FA6A
:100B2000E493A3F8E493A3C8C582C8CAC583CAF0F6
:100B3000A3C8C582C8CAC583CADFE9DEE780BEC0D4
:100B4000E0C0F0C083C082C0D075D000C000C0013A
:100B5000C002C003C004C005C006C00785FC187FE2
:100B6000061213D18F157F021213D18F167F041234
:100B700013D18F17E51530E1031214DDE51530E2CE
:100B8000031211BAE51630E003120E52E51630E1F9
:100B9000031212F4E51630E203121371E51730E187
:100BA00003120003E51530E0031214DE8518FCD0B3
:100BB00007D006D005D004D003D002D001D000D099
:100BC000D0D082D083D0F0D0E032AA07A905AF03FD
:100BD000EF24E0FBEAD3947F4004E4FA0909E5142A
:100BE00064107050AF02AD011213ACE4FD75F0104B
:100BF000EBA42DF582E435F0F583E582241BF58224
:100C0000E58334171213990DBD08E2AF02E904FD24
:100C10001213ACE4FD75F010EBA42DF582E435F071
:100C2000F583E5822423F582E58334171213990DA9
:100C3000BD08E222AF02AD011213ACE4FD75F0066F
:100C4000EBA424F3F582E5F0341412138F0DBD06E6
:100C5000EC227FAE1214567F1012145B7F401214E8
:100C60005B7F8112145B7FCF12145B7FA112145B38
:100C70007FC812145B7FA612145B7FA812145B7FDF
:100C80003F12145B7FD31214567FD512145B7F8002
:100C900012145B7FD912145B7FF112145B7FDA129E
:100CA000145B7F1212145B7FDB12145B7F40121403
:100CB0005B7F2012145B7F0212145B7F8D12145B2A
:100CC0007F1412145B7FA412145B7FA612145B7F47
:100CD0002E12145B7FAF02145BE54764026016E5D9
:100CE0003D7012E540700EE542700AE5417006E580
:100CF00044454360030214A4E53F6401704F754707
:100D000004F54EF54F7D017F0E1214497D207F12B0
:100D10001214497D087F101214497D027F0E1214AF
:100D2000497D207F121214497D087F101214497DDD
:100D3000017F0E121449E4FD7F121214497D087FD1
:100D400013121449E4FD7F0E1214498009754703FC
:100D5000754EFF754FFF1214B822E547640470709A
:100D6000E53D6402706AE5427066E5407062E53F09
:100D7000705EE544454360028056E541540FF51925
:100D8000E541146024247F6003047044AF19A80770
:100D90007401088002C333D8FCF4524EAD197F0EA3
:100DA0001214497D407F11801BAF19A807740108F8
:100DB0008002C333D8FCF4524FAD197F0E12144990
:100DC0007D807F14121449E4FD7F0E1214498003C4
:100DD0000214A41214B822E5476404706EE53D6461
:100DE000027068E5427064E5407060E53F705CE564
:100DF00044454360028054E541540FF519E5411420
:100E00006023247F6003047042AF19A807740108AF
:100E10008002C333D8FC424EAD197F0E1214497DB7
:100E2000107F11801AAF19A8077401088002C3331C
:100E3000D8FC424FAD197F0E1214497D207F141249
:100E40001449E4FD7F0E12144980030214A4121405
:100E5000B8221213C8AE07EE30E20B54FBFD7F112F
:100E6000121449E4F548EE30E4084480FD7F111285
:100E70001449E54824FD603D14603D2404703CEEB7
:100E800030E0387B007A00793D7F20120F78AF4444
:100E9000AE4312147C8E438F44E53D546024E060E1
:100EA0000B24E0600A24407009020FD30213E3020E
:100EB00014DA0214A4020F1C1210B72253B2FC431E
:100EC000B10390FE077480F090FE07E030E0F9E493
:100ED000F5DC75F490FDFF1214497D087F011214B2
:100EE000497D3F7F071214497D3F7F091214497DD8
:100EF000077F0B121449E4FD7F0112144975470264
:100F0000E4F548F54EF54FF5537552017551C2F5AC
:100F100050F554F55575560843AF80221213C8EFAB
:100F200020E154D3E54A9440E5499400AF4A400299
:100F30007F40AE07151DA81DA606AB4BAA4CA94DB8
:100F40007F201210FAEEFDC3E54A9DF54AE549946B
:100F500000F549AF06EF254DF54DE4354CF54CE570
:100F60004A4549700B7D0A7F11121449E4F5482265
:100F70007D027F1112144922151D151D151DA81D76
:100F8000A60308A60208A601151DA81DA607151D83
:100F9000151D7F161213D1A81DEFF6A81D08F6A87F
:100FA0001DE6166022A81D0808E6FF1213D1E51DF4
:100FB0002403F88603080806E61886027001061462
:100FC000F9EF12069480D8A81D08E6FFE51D240657
:100FD000F51D22E53EB40D00504F900FE1F8282892
:100FE0007302100802100B02102902100E021029C1
:100FF00002101102101402101702101A02101D0222
:1010000010200210230210260207CB020D5A020DF7
:10101000D702117C020A210214D402102D020CD92D
:1010200002125A0213140214D71214A422E53D64CA
:10103000807018E5407014E53F7010E542700CE5D3
:10104000417008E5446401454360030214A4E54788
:101050006404700D754BFF754C1E754DCCF54980C1
:101060000C754BFF754C1E754DCA754900754A01CC
:1010700012148B22AA07A905E4F5081213ACE4FDAB
:1010800075F040EBA4240BF582E5F0341D12138FAC
:1010900005080DBD10EAAF02E904FD1213ACE4FD32
:1010A00075F040EBA4242BF582E5F0341D12138F6C
:1010B00005080DBD10EA221213C8EF30E03BAB4B20
:1010C000AA4CA94D7F20120F78EFFDC3E54A9DF58C
:1010D0004AE5499400F549EF254DF54DE4354CF5C9
:1010E0004CE54A4549700B7D487F11121449E4F5DF
:1010F00048227D407F1112144922151D151D151D12
:10110000A81DA60308A60208A601151DA81DA6076E
:10111000E51D2404F8E616601CA81DE6FF088603FA
:10112000080806E618860270010614F912064EFD3C
:1011300012144980DBE51D2405F51D228F088D0959
:101140008B0A8A0B890CE4F50EAB0AAA0BA90C8555
:101150000E82758300120667FB6020850D14AD09B1
:10116000AF08120BCA74082508F508D39478400715
:10117000E4F50805090509050E80CE22E53D701D40
:10118000E5427019E5417015E5407011C3E53F94E3
:1011900080748094805006E544454360030214A4A3
:1011A000853F19AD19E4FF121449E519600575472B
:1011B0000380037547021214B822E4FDFF1214499C
:1011C000754702E4F5480D7F0E1214497D487F11E2
:1011D0001214497D027F0E1214497D487F111214AA
:1011E000491214457D907F14121449E4FD7F0E02CC
:1011F000144943BA8090FE99E04404F090FE807454
:10120000E0F090FE82E4F012128C53B2FC43B10382
:1012100090FE077480F090FE07E030E0F9120EBCFB
:1012200043AF80D2AFC2FC22022C11D701220001B1
:101230002100012F00013700033A000000033400B1
:1012400000000329FF14DF02250000023000000225
:10125000320000012E0001460000E54764047016CC
:10126000E53D64817010E540700CE5427008E5448E
:101270006401454360030214A4754BFF754C1E7551
:101280004DCA754900754A0112148B22E4F593F595
:1012900094F591F592F595F596F5B1F5B2F5B3F5AE
:1012A000B4F5C9F5CAF5CBF5CC75E11075E2E022CD
:1012B000E54764047006E53D642160030214A475EB
:1012C0004B00754C00754D5085434985444A1214B6
:1012D000AE22E54764047006E53D64A16003021494
:1012E000A4754B00754C00754D5085434985444AA3
:1012F00012148B227D011213CAAE07EE30E5077D72
:10130000407F11121449EE30E207E4FD7F11121400
:1013100049C20222E54764047013E53DB4010EE5BD
:1013200040700AE5427006E544454360030214A498
:101330001214B822EF1FAC0670011E4C601400009E
:10134000000000000000000000000000000000009D
:1013500080E222E4FDED24B0FF1214567F10121437
:101360005BE4FCE4FF12139E0CBC80F70DBD08E5A6
:10137000227D021213CAAE07EE30E5077D407F11D1
:10138000121449EE30E207E4FD7F1112144922F5F0
:1013900083E5822DF582E43583F583E493FF12140F
:1013A0002D1200C27F401200B70214CBAC07ED240F
:1013B000B0FF12145BEC54F0C4540F4410FF12142D
:1013C0005BEC540FFF02145BE4FD7F0E1214497FA7
:1013D00011E5FC20E7FBEF4480F5FCE5FC20E7FB92
:1013E000AFEC22E53E24DF600A14600A2402700993
:1013F0000212B00212D20214691214A4228F11A98F
:10140000057F017E00AD0119ED6009AD117C001270
:1014100006A680F122AB07AA06EB1BAE0270011AEA
:101420004E60097FE87E0312133480ED22AE07126E
:1014300014C27F7890FE86EFF090FE817402F00275
:10144000149853AF7F7D017F0EE5FC20E7FBEF543E
:101450007FF5FC8DEC2212145BE4FF12142D1200B8
:10146000C2E4FF1200B70214CBE54764047006E53E
:101470003D642160030214A41214B8228E198F1A3D
:10148000851A1B85191CAE1BAF1C227548037D40B5
:101490007F11121449020F1C90FE82E030E6F9E041
:1014A00054BFF0227548057D607F110214497548CC
:1014B000047D407F11021449E4F5487D487F110204
:1014C000144990FE817401F002149890FE81740614
:1014D000F00214980214A40214A40214A4222240BC
:1014E000535443495350230048656C6C6F204F4C54
:1014F0004544000000000000000000002F00000034
:10150000000700070000147F147F1400242A7F2A9C
:10151000120062640813230036495522500000056A
:1015200003000000001C224100000041221C0000BA
:1015300014083E08140008083E0808000000A060D7
:101540000000080808080800006060000000201083
:10155000080402003E5149453E0000427F40000021
:101560004261514946002141454B31001814127F18
:1015700010002745454539003C4A49493000017172
:1015800009050300364949493600064949291E0024
:1015900000363600000000563600000008142241D4
:1015A0000000141414141400004122140800020155
:1015B00051090600324959513E007C1211127C003B
:1015C0007F49494936003E41414122007F41412245
:1015D0001C007F49494941007F09090901003E413A
:1015E00049497A007F0808087F0000417F410000D8
:1015F0002040413F01007F08142241007F404040CD
:1016000040007F020C027F007F0408107F003E41F3
:1016100041413E007F09090906003E4151215E001B
:101620007F091929460046494949310001017F01D6
:1016300001003F4040403F001F2040201F003F402E
:1016400038403F006314081463000708700807005F
:10165000615149454300007F41410000552A552A08
:1016600055000041417F0000040201020400404097
:10167000404040000001020400002054545478000F
:101680007F484444380038444444200038444448A7
:101690007F00385454541800087E0901020018A431
:1016A000A4A47C007F080404780000447D4000006E
:1016B0004080847D00007F102844000000417F406E
:1016C00000007C04180478007C0804047800384486
:1016D00044443800FC242424180018242418FC0056
:1016E0007C0804040800485454542000043F44403B
:1016F00020003C4040207C001C2040201C003C403E
:1017000030403C004428102844001CA0A0A07C00CD
:101710004464544C441414141414140000000000C5
:101720000000000000000000000000000000F800C1
:10173000000000000000333000000000100C061014
:101740000C0600000000000000000040C07840C00F
:10175000784000043F04043F040400007088FC0843
:10176000300000001820FF211E0000F008F000E00B
:1017700018000000211C031E211E0000F0088870C4
:101780000000001E2123241927211010160E00002E
:101790000000000000000000000000000000E01851
:1017A000040200000000071820400000020418E0B6
:1017B0000000000040201807000000404080F0803A
:1017C0004040000202010F01020200000000F00090
:1017D0000000000101011F010101000000000000E4
:1017E00000000080B0700000000000000000000059
:1017F00000000000010101010101010000000000E2
:1018000000000000303000000000000000000080F8
:10181000601804006018060100000000E0100808CD
:1018200010E000000F102020100F00001010F80032
:101830000000000020203F20200000007008080861
:101840008870000030282422213000003008888869
:101850004830000018202020110E000000C0201089
:10186000F8000000070424243F240000F8088888BA
:101870000808000019212020110E0000E0108888BF
:10188000180000000F112020110E0000380808C8B1
:101890003808000000003F000000000070880808C1
:1018A000887000001C222121221C0000E010080882
:1018B00010E0000000312222110F00000000C0C023
:1018C0000000000000003030000000000000800038
:1018D0000000000000806000000000000080402048
:1018E0001008000001020408102000404040404061
:1018F00040400004040404040404000008102040D4
:101900008000000020100804020100007048080850
:1019100008F0000000003036010000C030C828E8A0
:1019200010E0000718272423140B000000C038E043
:10193000000000203C23020227382008F88888880D
:10194000700000203F202020110E00C03008080841
:10195000083800071820202010080008F808080898
:1019600010E000203F202020100F0008F88888E8B1
:10197000081000203F20202320180008F88888E85D
:10198000081000203F200003000000C030080808B5
:1019900038000007182020221E020008F808000066
:1019A00008F808203F210101213F20000808F8081D
:1019B0000800000020203F2020000000000808F858
:1019C000080800C08080807F00000008F888C028D8
:1019D000180800203F20012638200008F8080000E1
:1019E000000000203F20202020300008F8F800F8F8
:1019F000F80800203F003F003F200008F830C000FA
:101A000008F808203F200007183F00E010080808E9
:101A100010E0000F10202020100F0008F808080820
:101A200008F000203F210101010000E01008080833
:101A300010E0000F18242438504F0008F8888888D8
:101A4000887000203F2000030C30200070880808B8
:101A50000838000038202121221C00180808F80846
:101A60000818000000203F2000000008F8080000CF
:101A700008F808001F202020201F00087888000098
:101A8000C83808000007380E010000F80800F80008
:101A900008F800033C0700073C0300081868808032
:101AA00068180820302C03032C30200838C800C8E0
:101AB0003808000000203F2000000010080808C877
:101AC0003808002038262120201800000000FE02DF
:101AD0000202000000007F40404000000C30C000C7
:101AE000000000000000010638C00000020202FEF3
:101AF000000000004040407F00000000000402029F
:101B000002040000000000000000000000000000CF
:101B100000000080808080808080800002020400BD
:101B20000000000000000000000000000080808035
:101B30008000000019242222223F2008F800808023
:101B4000000000003F112020110E000000008080E6
:101B5000800000000E112020201100000000808075
:101B600088F800000E112020103F200000808080A7
:101B7000800000001F222222221300008080F088B3
:101B80008888180020203F202000000000808080EE
:101B9000808000006B94949493600008F80080802B
:101BA000800000203F210000203F20008098980006
:101BB0000000000020203F2020000000000080984E
:101BC00098000000C08080807F000008F80000803E
:101BD000808000203F24022D302000000808F800FB
:101BE0000000000020203F202000008080808080B6
:101BF000808000203F20003F20003F8080008080C8
:101C0000800000203F210000203F200000808080D5
:101C1000800000001F202020201F00808000808086
:101C200000000080FFA12020110E00000000808035
:101C3000808000000E112020A0FF80808080008026
:101C400080800020203F2120000100000080808053
:101C50008080000033242424241900008080E08048
:101C60008000000000001F20200000808000000095
:101C7000808000001F202020103F208080800000F6
:101C800080808000010E3008060100808000800006
:101C90008080800F300C030C300F000080800080AB
:101CA0008080000020312E0E3120008080800000D6
:101CB00080808080818E7018060100008080808086
:101CC0008080000021302C222130000000000080A4
:101CD0007C020200000000003F404000000000FFC6
:101CE00000000000000000FF0000000002027C80F5
:101CF0000000000040403F0000000000060101021B
:101D000002040400000000000000001090FF90108A
:101D10002024A4643E62A3222020000000000000D2
:101D200000000000000000000000000601FF0001AC
:101D300082611E000000FE0102020000000000009F
:101D40000000000000000000000000109453321E4C
:101D5000325210007E4242427E000000000000002D
:101D60000000000000000000000000000000FF492B
:101D7000494949494949FF000000000000000000AE
:101D8000000000000000000000000040404242420D
:101D900042C2424242424242404000000000000033
:101DA0000000000000000000000000002070282457
:101DB00023202020242830E0000000000000000044
:101DC00000000000000000000000002424A4FEA386
:101DD000220022CC0000FF000000000000000000F4
:101DE0000000000000000000000000080601FF00E5
:101DF000010404040404FF020202000000000000C9
:101E00000000000000000000000000101010FF1093
:101E10009008888888FF88888808000000000000F3
:101E200000000000000000000000000444827F0168
:101E3000808040432C102846818000000000000074
:101E4000000000000000000000000012010002027B
:101E5000000040BF3402FF000101020001090243FB
:101E600000020100803209040000010202010005A5
:101E700024001001052401000104240202052406A7
:101E80000001070582034000FF09040100020A0067
:101E90000000070581024000000705010240000024
:101EA0000403090408035300540043001E035300B5
:101EB000540043002000550053004200200053000E
:0E1EC00065007200690061006C000000010006
:00000001FF
